:100000000C942A000C943F000C943F000C943F0089
:100010000C943F000C943F000C943F000C943F0064
:100020000C943F000C943F000C943F000C943F0054
:100030000C943F000C943F000C943F000C943F0044
:100040000C943F000C943F000C943F000C943F0034
:100050000C943F0011241FBECFE5D8E0DEBFCDBF1A
:1000600010E0A0E6B0E0E6EDFAE002C005900D92E7
:10007000A837B107D9F70E9460050C9469050C9464
:100080000000DF93CF930F92CDB7DEB781E0898375
:10009000EAE3F0E08FEF8083E7E3F0E08FEF808327
:1000A000E4E3F0E08DEA8083E1E3F0E085ED808336
:1000B000EBE3F0E01082E8E3F0E01082E5E3F0E04B
:1000C0001082E2E3F0E01082198289810F90CF91D3
:1000D000DF910895DF93CF9300D000D000D0CDB74B
:1000E000DEB78B836C8381E08A838B818430A0F5BB
:1000F0008B81282F30E03E832D838D819E8181303E
:100100009105D1F02D813E81223031052CF48D8175
:100110009E81009761F01EC02D813E812230310505
:1001200081F08D819E818330910581F013C0EAE3D7
:10013000F0E08C8180830EC0E7E3F0E08C81808367
:1001400009C0E4E3F0E08C81808304C0E1E3F0E0E7
:100150008C818083198202C083E08A838A812696FB
:100160000FB6F894DEBF0FBECDBFCF91DF910895DB
:10017000DF93CF9300D000D000D0CDB7DEB78B8314
:100180006C8381E08A838B818430A0F58B81282F5A
:1001900030E03E832D838D819E8181309105D1F0A9
:1001A0002D813E81223031052CF48D819E81009776
:1001B00061F01EC02D813E812230310581F08D819C
:1001C0009E818330910581F013C0EBE3F0E08C81D8
:1001D00080830EC0E8E3F0E08C81808309C0E5E312
:1001E000F0E08C81808304C0E2E3F0E08C818083C6
:1001F000198202C083E08A838A8126960FB6F8941A
:10020000DEBF0FBECDBFCF91DF910895DF93CF93B7
:10021000CDB7DEB727970FB6F894DEBF0FBECDBFC0
:100220008B836C834D8381E08A838B81843008F0DB
:10023000D4C08C81883008F0D0C08D81823008F025
:10024000CCC08B81843008F0CAC08B81282F30E06D
:100250003F832E836E817F816130710509F441C037
:100260008E819F818230910534F42E813F8121154A
:10027000310571F0B0C06E817F816230710509F483
:1002800059C08E819F818330910509F47CC0A3C041
:10029000AAE3B0E0EAE3F0E08081482F8C81282FC8
:1002A00030E081E090E002C0880F991F2A95E2F7C4
:1002B000809584238C93AAE3B0E0EAE3F0E08081A8
:1002C000482F8D81282F30E08C81882F90E0B90154
:1002D00002C0660F771F8A95E2F7CB01842B8C93BF
:1002E0007AC0A7E3B0E0E7E3F0E08081482F8C819B
:1002F000282F30E081E090E002C0880F991F2A95F6
:10030000E2F7809584238C93A7E3B0E0E7E3F0E085
:100310008081482F8D81282F30E08C81882F90E0BC
:10032000B90102C0660F771F8A95E2F7CB01842BD3
:100330008C9351C0A4E3B0E0E4E3F0E08081482F67
:100340008C81282F30E081E090E002C0880F991F57
:100350002A95E2F7809584238C93A4E3B0E0E4E34C
:10036000F0E08081482F8D81282F30E08C81882F0C
:1003700090E0B90102C0660F771F8A95E2F7CB01C2
:10038000842B8C9328C0A1E3B0E0E1E3F0E080810E
:10039000482F8C81282F30E081E090E002C0880F48
:1003A000991F2A95E2F7809584238C93A1E3B0E00E
:1003B000E1E3F0E08081482F8D81282F30E08C81AF
:1003C000882F90E0B90102C0660F771F8A95E2F787
:1003D000CB01842B8C93198202C083E08A838A81AB
:1003E00027960FB6F894DEBF0FBECDBFCF91DF9139
:1003F0000895DF93CF93CDB7DEB727970FB6F89464
:10040000DEBF0FBECDBF8B836C834D831A828B8181
:10041000843008F0D4C08C81883008F0D0C08D8141
:10042000823008F0CCC08B81843008F0CAC08B8148
:10043000282F30E03F832E836E817F8161307105EC
:1004400009F441C08E819F818230910534F42E8160
:100450003F812115310571F0B0C06E817F8162301E
:10046000710509F459C08E819F818330910509F48B
:100470007CC0A3C0ABE3B0E0EBE3F0E08081482FA9
:100480008C81282F30E081E090E002C0880F991F16
:100490002A95E2F7809584238C93ABE3B0E0EBE3FD
:1004A000F0E08081482F8D81282F30E08C81882FCB
:1004B00090E0B90102C0660F771F8A95E2F7CB0181
:1004C000842B8C937AC0A8E3B0E0E8E3F0E080816D
:1004D000482F8C81282F30E081E090E002C0880F07
:1004E000991F2A95E2F7809584238C93A8E3B0E0C6
:1004F000E8E3F0E08081482F8D81282F30E08C8167
:10050000882F90E0B90102C0660F771F8A95E2F745
:10051000CB01842B8C9351C0A5E3B0E0E5E3F0E080
:100520008081482F8C81282F30E081E090E002C04C
:10053000880F991F2A95E2F7809584238C93A5E371
:10054000B0E0E5E3F0E08081482F8D81282F30E096
:100550008C81882F90E0B90102C0660F771F8A95C1
:10056000E2F7CB01842B8C9328C0A2E3B0E0E2E356
:10057000F0E08081482F8C81282F30E081E090E0EE
:1005800002C0880F991F2A95E2F7809584238C93E7
:10059000A2E3B0E0E2E3F0E08081482F8D81282FD4
:1005A00030E08C81882F90E0B90102C0660F771F80
:1005B0008A95E2F7CB01842B8C93198202C083E0E9
:1005C0008A838A8127960FB6F894DEBF0FBECDBF0F
:1005D000CF91DF910895DF93CF9300D000D00F9299
:1005E000CDB7DEB78B8381E08A838B81843008F0BE
:1005F00040C08B81282F30E03D832C838C819D81EE
:1006000081309105E9F02C813D81223031052CF4B7
:100610008C819D81009761F02AC02C813D81223020
:100620003105B1F08C819D8183309105C9F01FC0E7
:10063000ABE3B0E0EBE3F0E0808180958C9317C0F2
:10064000A8E3B0E0E8E3F0E0808180958C930FC0F0
:10065000A5E3B0E0E5E3F0E0808180958C9307C0EE
:10066000A2E3B0E0E2E3F0E0808180958C93198210
:1006700002C083E08A838A810F900F900F900F90C1
:100680000F90CF91DF910895DF93CF9300D000D0EA
:1006900000D0CDB7DEB78B836C831A828B81843018
:1006A00008F074C08C81883008F070C08B81282FCE
:1006B00030E03E832D838D819E818130910549F10B
:1006C0002D813E81223031052CF48D819E81009751
:1006D00061F05AC02D813E812230310571F18D814A
:1006E0009E8183309105E9F14FC0ABE3B0E0EBE3CD
:1006F000F0E08081482F8C81282F30E081E090E06D
:10070000022E02C0880F991F0A94E2F784278C9367
:100710003BC0A8E3B0E0E8E3F0E08081482F8C81A3
:10072000282F30E081E090E0022E02C0880F991F50
:100730000A94E2F784278C9327C0A5E3B0E0E5E3B1
:10074000F0E08081482F8C81282F30E081E090E01C
:10075000022E02C0880F991F0A94E2F784278C9317
:1007600013C0A2E3B0E0E2E3F0E08081482F8C8187
:10077000282F30E081E090E0022E02C0880F991F00
:100780000A94E2F784278C93198202C083E08A835B
:100790008A8126960FB6F894DEBF0FBECDBFCF91EB
:1007A000DF910895DF93CF93CDB7DEB728970FB6CB
:1007B000F894DEBF0FBECDBF8C837E836D831B821A
:1007C00081E090E09E838D838C818430E0F58C8184
:1007D000282F30E038872F838F81988581309105CD
:1007E000E1F02F813885223031052CF48F819885F6
:1007F000009761F026C02F81388522303105A1F0A5
:100800008F81988583309105B1F01BC0E9E3F0E05A
:100810008081ED81FE81808314C0E6E3F0E0808179
:10082000ED81FE8180830DC0E3E3F0E08081ED8106
:10083000FE81808306C0E0E3F0E08081ED81FE81EF
:100840008083198202C083E08B831A828B81289671
:100850000FB6F894DEBF0FBECDBFCF91DF910895E4
:10086000DF93CF93CDB7DEB72F970FB6F894DEBFE7
:100870000FBECDBF8A836B835D834C83198281E079
:1008800090E09D838C838A81843008F09BC08B81AB
:10089000883008F097C08A81282F30E03F872E8764
:1008A0004E855F8541305105A9F18E859F85823047
:1008B000910534F42E853F852115310571F080C0F6
:1008C0004E855F854230510509F441C08E859F8574
:1008D0008330910509F458C073C0E9E3F0E08081EA
:1008E000282F30E08B81882F90E0A90102C0559518
:1008F00047958A95E2F7CA01009729F081E090E0D8
:100900009D878C8702C01D861C868C85EC81FD81AD
:10091000808356C0E6E3F0E08081282F30E08B81B1
:10092000882F90E0A90102C0559547958A95E2F776
:10093000CA01009729F081E090E09B878A8702C076
:100940001B861A868A85EC81FD81808339C0E3E3AA
:10095000F0E08081282F30E08B81882F90E0A90182
:1009600002C0559547958A95E2F7CA01009729F08C
:1009700081E090E09987888702C01986188688856B
:10098000EC81FD8180831CC0E0E3F0E08081282FB2
:1009900030E08B81882F90E0A90102C055954795E2
:1009A0008A95E2F7CA01009729F081E090E09F83E1
:1009B0008E8302C01F821E828E81EC81FD81808326
:1009C000198202C083E0898389812F960FB6F8943B
:1009D000DEBF0FBECDBFCF91DF910895DF93CF93E0
:1009E00000D000D00F92CDB7DEB71B821A821982D9
:1009F00058C08981882F90E0FC01EC59FF4F90810D
:100A000080E0692F40E00E94F90189818430D0F5AF
:100A10008981882F90E0FC01E05AFF4F90819E0170
:100A20002C5F3F4F80E0692FA9010E9430048C8128
:100A3000882311F58981482F50E08A81282F30E0E2
:100A4000CA01880F991F880F991F820F931FFC01FD
:100A5000E859FF4F80818B830FC08981882F90E0F8
:100A6000FC01E05AFF4F90819E012C5F3F4F80E0D8
:100A7000692FA9010E9430048C81882371F38B8136
:100A80008D8315C08981882F90E0FC01EC59FF4FC0
:100A9000908180E0692F41E00E94F9018A818F5F97
:100AA0008A838A81843008F4A4CF8B818D838D81E1
:100AB0000F900F900F900F900F90CF91DF910895AE
:100AC000DF93CF93CDB7DEB780E090E0CF91DF9199
:060AD0000895F894FFCF29
:100AD60004050607000102030102030405060708D0
:080AE600090A0B0C0D0E0F10A4
:00000001FF
