:100000000C942A000C943F000C943F000C943F0089
:100010000C943F000C943F000C943F000C943F0064
:100020000C943F000C943F000C943F000C943F0054
:100030000C943F000C943F000C943F000C943F0044
:100040000C943F000C943F000C943F000C943F0034
:100050000C943F0011241FBECFE5D8E0DEBFCDBF1A
:1000600010E0A0E6B0E0EAE8FBE102C005900D92E6
:10007000A237B107D9F70E94480A0C94C30D0C941B
:100080000000EF92FF920F931F937B018C0120E001
:1000900030E040E05FE40E94410388238CF0C80117
:1000A000B70120E030E040E05FE40E94B9010E9427
:1000B000A1039B01AC01205030404040504806C095
:1000C000C801B7010E94A1039B01AC01B901CA019B
:1000D0001F910F91FF90EF900895A0E0B0E0E3E74B
:1000E000F0E00C948C0DDC012B01FA019C91923014
:1000F00008F439C1EB018881823008F433C19430AF
:1001000069F4843009F02FC111969C91119789816F
:10011000981709F428C1A0E6B0E025C1843009F49D
:1001200021C18230A9F4923009F01DC19A01AD01BC
:1001300088E0EA010990AE01E90109929E0181502F
:10014000C1F7E201898111969C918923818308C1BD
:10015000923009F407C112962D903C901397EB0151
:100160008A819B811496AD90BD90CD90DC901797BD
:10017000EC80FD800E811F819101281B390BB90194
:1001800037FF04C066277727621B730B6032710547
:100190000CF061C0121613066CF537014801062EEB
:1001A00004C096948794779467940A94D2F721E0D8
:1001B00030E040E050E004C0220F331F441F551FC1
:1001C0006A95D2F721503040404050402E213F21C7
:1001D00040235123211531054105510521F021E02E
:1001E00030E040E050E079018A01E628F72808294C
:1001F00019293CC0232BD1F1260E371E35014601AB
:10020000062E04C096948794779467940A94D2F744
:1002100021E030E040E050E004C0220F331F441FD3
:10022000551F6A95D2F721503040404050402A2156
:100230003B214C215D21211531054105510521F05E
:1002400021E030E040E050E059016A01A628B728DB
:10025000C828D9280BC0821593052CF01C01AA24AC
:10026000BB24650103C0EE24FF24870111969C91F5
:10027000D20111968C91981709F445C0992339F051
:10028000A80197012A193B094C095D0906C0A6017E
:1002900095012E193F09400B510B57FD08C01182E3
:1002A0003382228224833583468357831DC081E0B5
:1002B00081833382228288279927DC01821B930B5A
:1002C000A40BB50B84839583A683B7830DC0220F3F
:1002D000331F441F551F24833583468357838281F0
:1002E000938101979383828324813581468157814D
:1002F000DA01C9010197A109B1098F5F9F4FAF4F83
:10030000BF4328F30BC0918333822282EA0CFB1C8B
:100310000C1D1D1DE482F5820683178383E0808314
:10032000248135814681578157FF1AC0C901AA2708
:1003300097FDA095BA2F81709070A070B0705695FF
:10034000479537952795822B932BA42BB52B848328
:100350009583A683B7838281938101969383828359
:10036000DF0101C0D201CD01CDB7DEB7E2E10C94CF
:10037000A80DA0E2B0E0EFEBF1E00C94980D6983DA
:100380007A838B839C832D833E834F835887E9E058
:10039000EE2EF12CEC0EFD1ECE010196B7010E944F
:1003A000CA048E010F5E1F4FCE010596B8010E9450
:1003B000CA048A8991E089278A8BC701B801AE01F6
:1003C000475E5F4F0E946D000E94F503A096E6E035
:1003D0000C94B40DA0E2B0E0E0EFF1E00C94980DC5
:1003E00069837A838B839C832D833E834F835887D5
:1003F000F9E0EF2EF12CEC0EFD1ECE010196B701B7
:100400000E94CA048E010F5E1F4FCE010596B801EF
:100410000E94CA04C701B801AE01475E5F4F0E9447
:100420006D000E94F503A096E6E00C94B40DA0E2E6
:10043000B0E0EDE1F2E00C948C0D69837A838B835C
:100440009C832D833E834F835887CE010196BE0146
:10045000675F7F4F0E94CA04CE010596BE016F5EA2
:100460007F4F0E94CA049985923088F08989823032
:10047000C8F0943019F4823051F404C0843029F467
:10048000923081F480E690E0C6C0923049F420E0DA
:100490009A858A89981321E02A87CE010996BBC0E4
:1004A000823049F420E09A858A89981321E02A8BCA
:1004B000CE014196B0C02D843E844F8458886D880B
:1004C0007E888F88988CEE24FF248701AA24BB2481
:1004D000650140E050E060E070E0E0E0F0E0C10184
:1004E00081709070892BE9F0E60CF71C081D191D2E
:1004F0009A01AB012A0D3B1D4C1D5D1D80E090E073
:10050000A0E0B0E0E614F7040805190520F481E046
:1005100090E0A0E0B0E0BA01A901480F591F6A1F9E
:100520007B1FAA0CBB1CCC1CDD1C97FE08C081E005
:1005300090E0A0E0B0E0A82AB92ACA2ADB2A3196C6
:10054000E032F10549F0660C771C881C991C569422
:10055000479437942794C3CFFA85EA892B893C893D
:100560008B859C85280F391F2E5F3F4F17C0CA010E
:1005700081709070892B61F016950795F794E79438
:1005800080E090E0A0E0B0E8E82AF92A0A2B1B2BD3
:1005900076956795579547952F5F3F4F77FDE7CF46
:1005A0000CC0440F551F661F771F17FD4160EE0CEE
:1005B000FF1C001F111F21503040403090E05907B0
:1005C00090E0690790E4790760F32B8F3C8FDB01A3
:1005D000CA018F779070A070B07080349105A1052A
:1005E000B10561F447FD0AC0E114F10401051105EC
:1005F00029F0405C5F4F6F4F7F4F40781A8EFE1797
:1006000011F081E08A8F4D8F5E8F6F8F78A383E02A
:10061000898FCE0149960E94F503A096E2E10C94E1
:10062000A80DA8E1B0E0E7E1F3E00C94980D698330
:100630007A838B839C832D833E834F83588789E005
:10064000E82EF12CEC0EFD1ECE010196B7010E94A2
:10065000CA048E010F5E1F4FCE010596B8010E949D
:10066000CA048985823040F08989823028F0C70128
:10067000B8010E94420501C08FEF6896E6E00C9435
:10068000B40DA8E1B0E0E7E4F3E00C94980D6983C1
:100690007A838B839C832D833E834F83588789E0A5
:1006A000E82EF12CEC0EFD1ECE010196B7010E9442
:1006B000CA048E010F5E1F4FCE010596B8010E943D
:1006C000CA048985823040F08989823028F0C701C8
:1006D000B8010E94420501C08FEF6896E6E00C94D5
:1006E000B40DA8E1B0E0E7E7F3E00C94980D69835E
:1006F0007A838B839C832D833E834F83588789E045
:10070000E82EF12CEC0EFD1ECE010196B7010E94E1
:10071000CA048E010F5E1F4FCE010596B8010E94DC
:10072000CA048985823040F08989823028F0C70167
:10073000B8010E94420501C081E06896E6E00C9491
:10074000B40DACE0B0E0E7EAF3E00C949C0D6983F3
:100750007A838B839C83CE010196BE016B5F7F4FB2
:100760000E94CA048D81823061F1823050F1843060
:1007700021F48E81882351F12EC02F81388537FDD9
:1007800020C06E812F3131051CF06623F9F023C0A3
:100790008EE190E0821B930B29853A854B855C8521
:1007A00004C056954795379527958A95D2F76623C5
:1007B000B1F050954095309521953F4F4F4F5F4F89
:1007C0000EC020E030E040E050E009C02FEF3FEFE6
:1007D0004FEF5FE704C020E030E040E050E8B901AF
:1007E000CA012C96E2E00C94B80DDF92EF92FF92D2
:1007F0000F931F93FC01E480F58006811781D1805F
:100800008081823048F480E090E0A0E1B0E0E82A06
:10081000F92A0A2B1B2BA5C0843009F49FC0823013
:1008200021F4EE24FF24870105C0E114F104010541
:10083000110519F4E0E0F0E096C0628173819FEF4A
:10084000623879070CF05BC022E83FEF261B370BBC
:100850002A3131052CF020E030E040E050E02AC0A1
:10086000B801A701022E04C0769567955795479564
:100870000A94D2F781E090E0A0E0B0E004C0880FD5
:10088000991FAA1FBB1F2A95D2F70197A109B10989
:100890008E219F21A023B1230097A105B10521F04E
:1008A00081E090E0A0E0B0E09A01AB01282B392B69
:1008B0004A2B5B2BDA01C9018F779070A070B07062
:1008C00080349105A105B10539F427FF09C0205CEA
:1008D0003F4F4F4F5F4F04C0215C3F4F4F4F5F4F23
:1008E000E0E0F0E02030A0E03A07A0E04A07A0E412
:1008F0005A0710F0E1E0F0E079018A0127C0603882
:10090000710564F5FB01E158FF4FD801C7018F77EE
:100910009070A070B07080349105A105B10539F4D4
:10092000E7FE0DC080E490E0A0E0B0E004C08FE3FB
:1009300090E0A0E0B0E0E80EF91E0A1F1B1F17FFB1
:1009400005C016950795F794E794319687E01695BC
:100950000795F794E7948A95D1F705C0EE24FF2414
:100960008701EFEFF0E06E2F679566276795902F70
:100970009F77D794DD24D7948E2F8695492F462BC9
:10098000582F5D29B701CA011F910F91FF90EF9079
:10099000DF900895FC01DB01408151812281622FAB
:1009A0006F7770E0221F2227221F9381892F880FE3
:1009B000822B282F30E0991F9927991F11969C931D
:1009C000119721153105A9F54115510561057105ED
:1009D00011F482E037C082E89FEF13969C938E93C8
:1009E00012979A01AB0167E0220F331F441F551F76
:1009F0006A95D1F783E08C930DC0220F331F441FFB
:100A0000551F12968D919C911397019713969C9365
:100A10008E931297203080E0380780E0480780E40A
:100A2000580758F314962D933D934D935C93179765
:100A300008952F3F310579F4411551056105710580
:100A400019F484E08C93089564FF03C081E08C93D3
:100A500012C01C9210C02F57304013963C932E9317
:100A6000129783E08C9387E0440F551F661F771F12
:100A70008A95D1F7706414964D935D936D937C9332
:100A8000179708951F93DC01FB019C91923008F4A5
:100A900047C08081823008F443C0943051F41196ED
:100AA0001C91843099F58181682F70E0611B710978
:100AB0003FC0843021F0923031F48230B9F181812D
:100AC000882389F12DC011961C9111978230F1F085
:100AD00081811817D9F412962D913C911397828138
:100AE00093818217930794F028173907BCF0149666
:100AF0008D919D910D90BC91A02D248135814681D1
:100B00005781281739074A075B0718F4112341F06A
:100B10000AC082179307A407B50740F4112319F000
:100B200061E070E005C06FEF7FEF02C060E070E051
:100B3000CB011F910895DF93CF930F92CDB7DEB70E
:100B400081E08983EAE3F0E08FEF8083E7E3F0E080
:100B50008FEF8083E4E3F0E08DEA8083E1E3F0E06F
:100B600085ED8083EBE3F0E01082E8E3F0E01082B3
:100B7000E5E3F0E01082E2E3F0E01082198289817F
:100B80000F90CF91DF910895DF93CF9300D000D0E5
:100B900000D0CDB7DEB78B836C8381E08A838B81F5
:100BA0008430A0F58B81282F30E03E832D838D810A
:100BB0009E8181309105D1F02D813E812230310519
:100BC0002CF48D819E81009761F01EC02D813E81A5
:100BD0002230310581F08D819E818330910581F035
:100BE00013C0EAE3F0E08C8180830EC0E7E3F0E01D
:100BF0008C81808309C0E4E3F0E08C81808304C0B1
:100C0000E1E3F0E08C818083198202C083E08A8373
:100C10008A8126960FB6F894DEBF0FBECDBFCF9166
:100C2000DF910895DF93CF9300D000D000D0CDB7EF
:100C3000DEB78B836C8381E08A838B818430A0F55F
:100C40008B81282F30E03E832D838D819E818130E2
:100C50009105D1F02D813E81223031052CF48D811A
:100C60009E81009761F01EC02D813E8122303105AA
:100C700081F08D819E818330910581F013C0EBE37B
:100C8000F0E08C8180830EC0E8E3F0E08C8180830B
:100C900009C0E5E3F0E08C81808304C0E2E3F0E08A
:100CA0008C818083198202C083E08A838A812696A0
:100CB0000FB6F894DEBF0FBECDBFCF91DF91089580
:100CC000DF93CF93CDB7DEB727970FB6F894DEBF8B
:100CD0000FBECDBF8B836C834D8381E08A838B8174
:100CE000843008F0D4C08C81883008F0D0C08D8169
:100CF000823008F0CCC08B81843008F0CAC08B8170
:100D0000282F30E03F832E836E817F816130710513
:100D100009F441C08E819F818230910534F42E8187
:100D20003F812115310571F0B0C06E817F81623045
:100D3000710509F459C08E819F818330910509F4B2
:100D40007CC0A3C0AAE3B0E0EAE3F0E08081482FD2
:100D50008C81282F30E081E090E002C0880F991F3D
:100D60002A95E2F7809584238C93AAE3B0E0EAE326
:100D7000F0E08081482F8D81282F30E08C81882FF2
:100D800090E0B90102C0660F771F8A95E2F7CB01A8
:100D9000842B8C937AC0A7E3B0E0E7E3F0E0808196
:100DA000482F8C81282F30E081E090E002C0880F2E
:100DB000991F2A95E2F7809584238C93A7E3B0E0EE
:100DC000E7E3F0E08081482F8D81282F30E08C818F
:100DD000882F90E0B90102C0660F771F8A95E2F76D
:100DE000CB01842B8C9351C0A4E3B0E0E4E3F0E0AA
:100DF0008081482F8C81282F30E081E090E002C074
:100E0000880F991F2A95E2F7809584238C93A4E399
:100E1000B0E0E4E3F0E08081482F8D81282F30E0BE
:100E20008C81882F90E0B90102C0660F771F8A95E8
:100E3000E2F7CB01842B8C9328C0A1E3B0E0E1E37F
:100E4000F0E08081482F8C81282F30E081E090E015
:100E500002C0880F991F2A95E2F7809584238C930E
:100E6000A1E3B0E0E1E3F0E08081482F8D81282FFD
:100E700030E08C81882F90E0B90102C0660F771FA7
:100E80008A95E2F7CB01842B8C93198202C083E010
:100E90008A838A8127960FB6F894DEBF0FBECDBF36
:100EA000CF91DF910895DF93CF93CDB7DEB727972A
:100EB0000FB6F894DEBF0FBECDBF8B836C834D831E
:100EC0001A828B81843008F0D4C08C81883008F07D
:100ED000D0C08D81823008F0CCC08B81843008F086
:100EE000CAC08B81282F30E03F832E836E817F81A3
:100EF0006130710509F441C08E819F818230910576
:100F000034F42E813F812115310571F0B0C06E811E
:100F10007F816230710509F459C08E819F818330D1
:100F2000910509F47CC0A3C0ABE3B0E0EBE3F0E0D3
:100F30008081482F8C81282F30E081E090E002C032
:100F4000880F991F2A95E2F7809584238C93ABE351
:100F5000B0E0EBE3F0E08081482F8D81282F30E076
:100F60008C81882F90E0B90102C0660F771F8A95A7
:100F7000E2F7CB01842B8C937AC0A8E3B0E0E8E3DE
:100F8000F0E08081482F8C81282F30E081E090E0D4
:100F900002C0880F991F2A95E2F7809584238C93CD
:100FA000A8E3B0E0E8E3F0E08081482F8D81282FAE
:100FB00030E08C81882F90E0B90102C0660F771F66
:100FC0008A95E2F7CB01842B8C9351C0A5E3B0E066
:100FD000E5E3F0E08081482F8C81282F30E081E02C
:100FE00090E002C0880F991F2A95E2F7809584232C
:100FF0008C93A5E3B0E0E5E3F0E08081482F8D819C
:10100000282F30E08C81882F90E0B90102C0660F54
:10101000771F8A95E2F7CB01842B8C9328C0A2E33B
:10102000B0E0E2E3F0E08081482F8C81282F30E0AF
:1010300081E090E002C0880F991F2A95E2F7809521
:1010400084238C93A2E3B0E0E2E3F0E08081482FB8
:101050008D81282F30E08C81882F90E0B90102C06B
:10106000660F771F8A95E2F7CB01842B8C93198248
:1010700002C083E08A838A8127960FB6F894DEBF88
:101080000FBECDBFCF91DF910895DF93CF9300D0F6
:1010900000D00F92CDB7DEB78B8381E08A838B813E
:1010A000843008F040C08B81282F30E03D832C83B2
:1010B0008C819D8181309105E9F02C813D81223028
:1010C00031052CF48C819D81009761F02AC02C8120
:1010D0003D8122303105B1F08C819D8183309105B5
:1010E000C9F01FC0ABE3B0E0EBE3F0E08081809596
:1010F0008C9317C0A8E3B0E0E8E3F0E0808180952E
:101100008C930FC0A5E3B0E0E5E3F0E0808180952B
:101110008C9307C0A2E3B0E0E2E3F0E08081809529
:101120008C93198202C083E08A838A810F900F908A
:101130000F900F900F90CF91DF910895DF93CF9391
:1011400000D000D000D0CDB7DEB78B836C831A827D
:101150008B81843008F074C08C81883008F070C0B6
:101160008B81282F30E03E832D838D819E818130BD
:10117000910549F12D813E81223031052CF48D817C
:101180009E81009761F05AC02D813E812230310549
:1011900071F18D819E8183309105E9F14FC0ABE300
:1011A000B0E0EBE3F0E08081482F8C81282F30E025
:1011B00081E090E0022E02C0880F991F0A94E2F7A6
:1011C00084278C933BC0A8E3B0E0E8E3F0E08081A3
:1011D000482F8C81282F30E081E090E0022E02C061
:1011E000880F991F0A94E2F784278C9327C0A5E300
:1011F000B0E0E5E3F0E08081482F8C81282F30E0DB
:1012000081E090E0022E02C0880F991F0A94E2F755
:1012100084278C9313C0A2E3B0E0E2E3F0E0808186
:10122000482F8C81282F30E081E090E0022E02C010
:10123000880F991F0A94E2F784278C93198202C0C1
:1012400083E08A838A8126960FB6F894DEBF0FBEAC
:10125000CDBFCF91DF910895DF93CF93CDB7DEB7A8
:1012600028970FB6F894DEBF0FBECDBF8C837E8368
:101270006D831B8281E090E09E838D838C8184301E
:10128000E0F58C81282F30E038872F838F81988577
:1012900081309105E1F02F813885223031052CF421
:1012A0008F819885009761F026C02F813885223084
:1012B0003105A1F08F81988583309105B1F01BC075
:1012C000E9E3F0E08081ED81FE81808314C0E6E3F4
:1012D000F0E08081ED81FE8180830DC0E3E3F0E0EA
:1012E0008081ED81FE81808306C0E0E3F0E08081B3
:1012F000ED81FE818083198202C083E08B831A8294
:101300008B8128960FB6F894DEBF0FBECDBFCF916C
:10131000DF910895DF93CF93CDB7DEB72F970FB648
:10132000F894DEBF0FBECDBF8A836B835D834C8391
:10133000198281E090E09D838C838A81843008F05B
:101340009BC08B81883008F097C08A81282F30E0BD
:101350003F872E874E855F8541305105A9F18E85E7
:101360009F858230910534F42E853F852115310506
:1013700071F080C04E855F854230510509F441C04F
:101380008E859F858330910509F458C073C0E9E3C9
:10139000F0E08081282F30E08B81882F90E0A90138
:1013A00002C0559547958A95E2F7CA01009729F042
:1013B00081E090E09D878C8702C01D861C868C850D
:1013C000EC81FD81808356C0E6E3F0E08081282F28
:1013D00030E08B81882F90E0A90102C05595479598
:1013E0008A95E2F7CA01009729F081E090E09B8797
:1013F0008A8702C01B861A868A85EC81FD818083DC
:1014000039C0E3E3F0E08081282F30E08B81882F22
:1014100090E0A90102C0559547958A95E2F7CA0167
:10142000009729F081E090E09987888702C01986AB
:1014300018868885EC81FD8180831CC0E0E3F0E0A4
:101440008081282F30E08B81882F90E0A90102C095
:10145000559547958A95E2F7CA01009729F081E0F2
:1014600090E09F838E8302C01F821E828E81EC815A
:10147000FD818083198202C083E0898389812F9650
:101480000FB6F894DEBF0FBECDBFCF91DF910895A8
:10149000DF93CF93CDB7DEB760970FB6F894DEBF7A
:1014A0000FBECDBF0E949B050E94D80A8889882361
:1014B000E9F71F8678C08F850E94CD0B80E090E011
:1014C000AAEFB3E48B879C87AD87BE876B857C854D
:1014D0008D859E8520E030E04AE753E40E941702A4
:1014E000DC01CB018F839887A987BA876F817885C4
:1014F00089859A8520E030E040E85FE30E9471032F
:1015000088232CF481E090E09E838D833FC06F811F
:10151000788589859A8520E03FEF4FE757E40E9460
:10152000110318164CF56B857C858D859E8520E012
:1015300030E040E251E40E941702DC01CB01BC0123
:10154000CD010E944100DC01CB019E838D830FC041
:1015500089E190E09C838B838B819C810197F1F7DB
:101560009C838B838D819E8101979E838D838D814A
:101570009E81009769F714C06F81788589859A8567
:101580000E944100DC01CB019E838D838D819E8171
:101590009A83898389819A810197F1F79A83898354
:1015A0008F858F5F8F878F858A3008F484CF7ECFB9
:1015B000DF93CF93CDB7DEB727970FB6F894DEBF92
:1015C0000FBECDBF81E08E831A821B821C821D82DA
:1015D00080E063E041E00E946006882F90E0A0E098
:1015E000B0E08A839B83AC83BD8385E060E041E00B
:1015F0000E946006882F90E0880F991F880F991F1E
:10160000880F991F9C01442737FD4095542F8A81EC
:101610009B81AC81BD81822B932BA42BB52B8A831C
:101620009B83AC83BD8383E060E041E00E94600661
:10163000882F90E000249695879507949695879536
:101640000794982F802D9C01442737FD4095542FF7
:101650008A819B81AC81BD81822B932BA42BB52BDE
:101660008A839B83AC83BD8385E061E041E00E9477
:101670006006882F90E0982F8827990F9C014427B7
:1016800037FD4095542F8A819B81AC81BD81822B8F
:10169000932BA42BB52B8A839B83AC83BD8381E0E2
:1016A00061E041E00E946006882F90E0982F882733
:1016B0009295907F9C01442737FD4095542F8A8155
:1016C0009B81AC81BD81822B932BA42BB52B8A836C
:1016D0009B83AC83BD8381E062E041E00E946006B1
:1016E000882F90E099278695979588279C01442715
:1016F00037FD4095542F8A819B81AC81BD81822B1F
:10170000932BA42BB52B8A839B83AC83BD8386E06C
:1017100062E041E00E946006882F90E099278827C8
:101720009C01442737FD4095542F8A819B81AC81D1
:10173000BD81822B932BA42BB52B8A839B83AC83F7
:10174000BD831982198219C08981282F30E08A81CE
:101750009B81AC81BD81022E04C0B695A79597955B
:1017600087950A94D2F781709070882319F08E8142
:101770008F8309C089818D5F89838981853120F3B9
:101780001E828E818F838F8127960FB6F894DEBFDD
:101790000FBECDBFCF91DF910895DF93CF93CDB72B
:1017A000DEB72F970FB6F894DEBF0FBECDBF8F8385
:1017B00081E08E831A821B821C821D828F818A3077
:1017C00008F01DC18F81882F90E0FC01E859FF4F80
:1017D00080811F86882311F481E08F8780E063E099
:1017E0004F850E945307882F90E0A0E0B0E08A83E5
:1017F0009B83AC83BD838F81882F90E0FC01E859E7
:10180000FF4F808186951E86882311F481E08E87A4
:1018100085E060E04E850E945307882F90E0880F96
:10182000991F880F991F880F991F9C01442737FD26
:101830004095542F8A819B81AC81BD81822B932B53
:10184000A42BB52B8A839B83AC83BD838F81882F88
:1018500090E0FC01E859FF4F8081869586951D86B2
:10186000882311F481E08D8783E060E04D850E943C
:101870005307882F90E000249695879507949695B6
:1018800087950794982F802D9C01442737FD40951C
:10189000542F8A819B81AC81BD81822B932BA42BF9
:1018A000B52B8A839B83AC83BD838F81882F90E087
:1018B000FC01E859FF4F80818695869586951C86A8
:1018C000882311F481E08C8785E061E04C850E94DB
:1018D0005307882F90E0982F8827990F9C01442761
:1018E00037FD4095542F8A819B81AC81BD81822B2D
:1018F000932BA42BB52B8A839B83AC83BD838F81D1
:10190000882F90E0FC01E859FF4F808182958F700D
:101910001B86882311F481E08B8781E061E04B8591
:101920000E945307882F90E0982F88279295907FE8
:101930009C01442737FD4095542F8A819B81AC81BF
:10194000BD81822B932BA42BB52B8A839B83AC83E5
:10195000BD838F81882F90E0FC01E859FF4F808183
:101960008295869587701A86882311F481E08A878C
:1019700081E062E04A850E945307882F90E0992712
:101980008695979588279C01442737FD4095542FCD
:101990008A819B81AC81BD81822B932BA42BB52B9B
:1019A0008A839B83AC83BD838F81882F90E0FC0169
:1019B000E859FF4F808182958695869583701986B8
:1019C000882311F481E0898786E062E049850E94DE
:1019D0005307882F90E0992788279C01442737FDDB
:1019E0004095542F8A819B81AC81BD81822B932BA2
:1019F000A42BB52B8A839B83AC83BD8302C083E079
:101A00008E831982198219C08981282F30E08A813A
:101A10009B81AC81BD81022E04C0B695A795979598
:101A200087950A94D2F781709070882319F08E817F
:101A3000888709C089818D5F89838981853120F3F9
:101A40001E828E81888788852F960FB6F894DEBF18
:101A50000FBECDBFCF91DF910895DF93CF930F924B
:101A6000CDB7DEB781E0898389810F90CF91DF9177
:101A70000895DF93CF930F92CDB7DEB781E08983CE
:101A800089810F90CF91DF910895DF93CF930F92CB
:101A9000CDB7DEB781E0898389810F90CF91DF9147
:101AA0000895DF93CF930F92CDB7DEB781E089839E
:101AB00089810F90CF91DF910895DF93CF930F929B
:101AC000CDB7DEB781E0898380E063E041E00E942A
:101AD000530785E060E041E00E94530783E060E047
:101AE00041E00E94530785E061E041E00E94530716
:101AF00081E061E041E00E94530781E062E041E063
:101B00000E94530786E062E041E00E94530789810A
:101B10000F90CF91DF9108952F923F924F925F9255
:101B20006F927F928F929F92AF92BF92CF92DF92ED
:101B3000EF92FF920F931F93CF93DF93CDB7DEB752
:101B4000CA1BDB0B0FB6F894DEBF0FBECDBF0994E6
:101B50002A88398848885F846E847D848C849B843D
:101B6000AA84B984C884DF80EE80FD800C811B814B
:101B7000AA81B981CE0FD11D0FB6F894DEBF0FBE7A
:0A1B8000CDBFED010895F894FFCFEA
:101B8A0000000000000000003F065B4F666D7D0705
:021B9A007F6F5B
:00000001FF
