:100000000C942A000C9434000C9434000C943400AA
:100010000C9434000C9434000C9434000C94340090
:100020000C9434000C9434000C9434000C94340080
:100030000C9434000C9434000C9434000C94340070
:100040000C9434000C9434000C9434000C94340060
:100050000C94340011241FBECFE5D8E0DEBFCDBF25
:100060000E9436000C948E000C940000DF93CF9316
:10007000CDB7DEB7AAE3B0E0EAE3F0E08081877FA6
:100080008C93ABE3B0E0EBE3F0E0808188608C938D
:10009000AAE3B0E0EAE3F0E0808180628C93ABE316
:1000A000B0E0EBE3F0E080818F7D8C93AAE3B0E0D9
:1000B000EAE3F0E0808180688C93ABE3B0E0EBE3AF
:1000C000F0E080818F778C93E9E3F0E08081869582
:1000D00086958695882F90E081709070009779F4CE
:1000E000ABE3B0E0EBE3F0E0808180688C93ABE3BE
:1000F000B0E0EBE3F0E080818F7D8C93E5CFABE364
:10010000B0E0EBE3F0E080818F778C93ABE3B0E07D
:10011000EBE3F0E0808180628C93D6CFF894FFCF40
:00000001FF
