:100000000C942A000C941D060C9453060C9489063B
:100010000C943C000C943C000C943C000C943C0070
:100020000C943C000C943C000C943C000C943C0060
:100030000C943C000C943C000C943C000C943C0050
:100040000C943C000C943C000C943C000C943C0040
:100050000C943C0011241FBECFE5D8E0DEBFCDBF1D
:1000600010E0A0E6B0E001C01D92A636B107E1F7AE
:100070000E94BF060C94C8060C940000DF93CF9337
:100080000F92CDB7DEB781E08983EAE3F0E08FEF2E
:100090008083E7E3F0E08FEF8083E4E3F0E08FE03C
:1000A0008083E1E3F0E085ED8083EBE3F0E0108214
:1000B000E8E3F0E01082E5E3F0E08FEF8083E2E335
:1000C000F0E01082198289810F90CF91DF9108951D
:1000D000DF93CF9300D000D00F92CDB7DEB78A83E5
:1000E0006B8381E089838A818430A0F58A81282FFF
:1000F00030E03D832C838C819D8181309105D1F04E
:100100002C813D81223031052CF48C819D8100971A
:1001100061F01EC02C813D812230310581F08C813F
:100120009D818330910581F013C0EAE3F0E08B817B
:1001300080830EC0E7E3F0E08B81808309C0E4E3B5
:10014000F0E08B81808304C0E1E3F0E08B81808369
:10015000198202C083E0898389810F900F900F90EC
:100160000F900F90CF91DF910895DF93CF9300D040
:1001700000D00F92CDB7DEB78A836B8381E089838D
:100180008A818430A0F58A81282F30E03D832C833A
:100190008C819D8181309105D1F02C813D8122306F
:1001A00031052CF48C819D81009761F01EC02C815B
:1001B0003D812230310581F08C819D818330910514
:1001C00081F013C0EBE3F0E08B8180830EC0E8E3A5
:1001D000F0E08B81808309C0E5E3F0E08B818083D0
:1001E00004C0E2E3F0E08B818083198202C083E0E7
:1001F000898389810F900F900F900F900F90CF916E
:10020000DF910895DF93CF9300D000D000D0CDB719
:10021000DEB78A836B834C8381E089838A81843053
:1002200008F0D4C08B81883008F0D0C08C81823037
:1002300008F0CCC08A81843008F0CAC08A81282F97
:1002400030E03E832D836D817E816130710509F43C
:1002500041C08D819E818230910534F42D813E8193
:100260002115310571F0B0C06D817E81623071055C
:1002700009F459C08D819E818330910509F47CC0B9
:10028000A3C0AAE3B0E0EAE3F0E08081482F8B81CD
:10029000282F30E081E090E002C0880F991F2A9556
:1002A000E2F7809584238C93AAE3B0E0EAE3F0E0E0
:1002B0008081482F8C81282F30E08B81882F90E01F
:1002C000B90102C0660F771F8A95E2F7CB01842B34
:1002D0008C937AC0A7E3B0E0E7E3F0E08081482F99
:1002E0008B81282F30E081E090E002C0880F991FB9
:1002F0002A95E2F7809584238C93A7E3B0E0E7E3A7
:10030000F0E08081482F8C81282F30E08B81882F6E
:1003100090E0B90102C0660F771F8A95E2F7CB0122
:10032000842B8C9351C0A4E3B0E0E4E3F0E080813F
:10033000482F8B81282F30E081E090E002C0880FA9
:10034000991F2A95E2F7809584238C93A4E3B0E06B
:10035000E4E3F0E08081482F8C81282F30E08B810E
:10036000882F90E0B90102C0660F771F8A95E2F7E7
:10037000CB01842B8C9328C0A1E3B0E0E1E3F0E053
:100380008081482F8B81282F30E081E090E002C0EF
:10039000880F991F2A95E2F7809584238C93A1E317
:1003A000B0E0E1E3F0E08081482F8C81282F30E03D
:1003B0008B81882F90E0B90102C0660F771F8A9564
:1003C000E2F7CB01842B8C93198202C083E08983EE
:1003D000898126960FB6F894DEBF0FBECDBFCF91B0
:1003E000DF910895DF93CF9300D000D000D0CDB738
:1003F000DEB78A836B834C8381E089838A81843072
:1004000008F0D0C08B81883008F0CCC08C8182305D
:1004100008F0C8C08A81282F30E03E832D836D818B
:100420007E816130710509F441C08D819E818230E9
:10043000910534F42D813E812115310571F0B0C054
:100440006D817E816230710509F459C08D819E8174
:100450008330910509F47CC0A3C0ABE3B0E0EBE3CB
:10046000F0E08081482F8B81282F30E081E090E000
:1004700002C0880F991F2A95E2F7809584238C93F8
:10048000ABE3B0E0EBE3F0E08081482F8C81282FD4
:1004900030E08B81882F90E0B90102C0660F771F92
:1004A0008A95E2F7CB01842B8C937AC0A8E3B0E065
:1004B000E8E3F0E08081482F8B81282F30E081E055
:1004C00090E002C0880F991F2A95E2F78095842357
:1004D0008C93A8E3B0E0E8E3F0E08081482F8C81C2
:1004E000282F30E08B81882F90E0B90102C0660F81
:1004F000771F8A95E2F7CB01842B8C9351C0A5E33B
:10050000B0E0E5E3F0E08081482F8B81282F30E0D8
:1005100081E090E002C0880F991F2A95E2F780954C
:1005200084238C93A5E3B0E0E5E3F0E08081482FDD
:100530008C81282F30E08B81882F90E0B90102C098
:10054000660F771F8A95E2F7CB01842B8C9328C026
:10055000A2E3B0E0E2E3F0E08081482F8B81282F16
:1005600030E081E090E002C0880F991F2A95E2F701
:10057000809584238C93A2E3B0E0E2E3F0E08081F5
:10058000482F8C81282F30E08B81882F90E0B90193
:1005900002C0660F771F8A95E2F7CB01842B8C93FC
:1005A000198202C083E08983898126960FB6F89468
:1005B000DEBF0FBECDBFCF91DF910895DF93CF9304
:1005C00000D000D0CDB7DEB78A8381E089838A81ED
:1005D000843008F040C08A81282F30E03C832B8390
:1005E0008B819C8181309105E9F02B813C81223007
:1005F00031052CF48B819C81009761F02AC02B81FE
:100600003C8122303105B1F08B819C818330910592
:10061000C9F01FC0ABE3B0E0EBE3F0E08081809570
:100620008C9317C0A8E3B0E0E8E3F0E08081809508
:100630008C930FC0A5E3B0E0E5E3F0E08081809506
:100640008C9307C0A2E3B0E0E2E3F0E08081809504
:100650008C93198202C083E0898389810F900F9067
:100660000F900F90CF91DF910895DF93CF9300D03B
:1006700000D00F92CDB7DEB78A836B8319828A814F
:10068000843008F074C08B81883008F070C08A8193
:10069000282F30E03D832C838C819D818130910512
:1006A00049F12C813D81223031052CF48C819D81D2
:1006B000009761F05AC02C813D812230310571F1E3
:1006C0008C819D8183309105E9F14FC0ABE3B0E0AF
:1006D000EBE3F0E08081482F8B81282F30E081E030
:1006E00090E0022E02C0880F991F0A94E2F7842737
:1006F0008C933BC0A8E3B0E0E8E3F0E08081482FB2
:100700008B81282F30E081E090E0022E02C0880F1C
:10071000991F0A94E2F784278C9327C0A5E3B0E0E1
:10072000E5E3F0E08081482F8B81282F30E081E0E5
:1007300090E0022E02C0880F991F0A94E2F78427E6
:100740008C9313C0A2E3B0E0E2E3F0E08081482F95
:100750008B81282F30E081E090E0022E02C0880FCC
:10076000991F0A94E2F784278C93198202C083E0D0
:10077000898389810F900F900F900F900F90CF91E8
:10078000DF910895DF93CF9300D000D000D0CDB794
:10079000DEB78A837C836B8319828B819C8100976F
:1007A00009F442C08A818430E0F58A81282F30E044
:1007B0003E832D838D819E8181309105E1F02D81D5
:1007C0003E81223031052CF48D819E81009761F0AD
:1007D00026C02D813E8122303105A1F08D819E8180
:1007E00083309105B1F01BC0E9E3F0E08081EB813B
:1007F000FC81808314C0E6E3F0E08081EB81FC8122
:1008000080830DC0E3E3F0E08081EB81FC81808395
:1008100006C0E0E3F0E08081EB81FC8180831982F7
:1008200005C083E0898302C082E08983898126969E
:100830000FB6F894DEBF0FBECDBFCF91DF91089504
:10084000DF93CF93CDB7DEB727970FB6F894DEBF0F
:100850000FBECDBF8A836B835D834C8319828C81ED
:100860009D81009709F47DC08A81843008F076C0AC
:100870008B81883008F072C08A81282F30E03F8356
:100880002E834E815F814130510559F18E819F81C8
:100890008230910534F42E813F812115310569F0B4
:1008A0005BC04E815F814230510579F18E819F811D
:1008B0008330910509F43DC04FC0E9E3F0E0808149
:1008C000282F30E08B81882F90E0A90102C0559538
:1008D00047958A95E2F7CA018170EC81FD8180839A
:1008E0003BC0E6E3F0E08081282F30E08B81882F49
:1008F00090E0A90102C0559547958A95E2F7CA0193
:100900008170EC81FD81808327C0E3E3F0E080818A
:10091000282F30E08B81882F90E0A90102C05595E7
:1009200047958A95E2F7CA018170EC81FD81808349
:1009300013C0E0E3F0E08081282F30E08B81882F26
:1009400090E0A90102C0559547958A95E2F7CA0142
:100950008170EC81FD818083198205C083E08983E9
:1009600002C082E08983898127960FB6F894DEBFA2
:100970000FBECDBFCF91DF910895DF93CF930F923C
:10098000CDB7DEB7198289810F90CF91DF9108959D
:10099000DF93CF9300D0CDB7DEB78A8381E0898320
:1009A0008A81863058F08A81873040F4EBE5F0E0A8
:1009B00080816A8141E00E94F201198289810F9051
:1009C0000F90CF91DF910895DF93CF9300D0CDB7F3
:1009D000DEB78A8381E089838A81863058F08A81F4
:1009E000873040F4EBE5F0E080816A8140E00E94CE
:1009F000F201198289810F900F90CF91DF910895B4
:100A0000DF93CF9300D0CDB7DEB78A8381E08983AF
:100A10008A81863058F08A81873040F4EAE5F0E038
:100A200080816A8141E00E94F201198289810F90E0
:100A30000F90CF91DF910895DF93CF9300D000D036
:100A4000CDB7DEB79B838A836C8319828A819B81B1
:100A5000009769F08C81882F90E0880F991FFC0126
:100A6000E05AFF4F8A819B819183808302C082E09C
:100A7000898389810F900F900F900F90CF91DF9114
:100A80000895DF93CF93CDB7DEB728970FB6F894CC
:100A9000DEBF0FBECDBF8B836C831A828B81863005
:100AA00021F08B81873009F073C08B818650898358
:100AB0008C81282F30E038872F838F819885813073
:100AC000910569F12F813885223031052CF48F8111
:100AD0009885009769F085C02F81388522303105CF
:100AE00089F18F8198858330910509F43EC079C0E2
:100AF000E5E5F0E08081698140E00E94F201982FF5
:100B00008A81892B8A83E5E5F0E020818981982F0D
:100B10009F5F822F692F41E00E94F20162C0E5E5EC
:100B2000F0E08081698141E00E94F201982F8A8182
:100B3000892B8A83E5E5F0E08081698141E00E94AC
:100B4000F2014FC0E5E5F0E08081698140E00E945C
:100B5000F201982F8A81892B8A83E5E5F0E0808174
:100B6000698140E00E94F2013CC0E5E5F0E080814F
:100B7000698141E00E94F201982F8A81892B8A8342
:100B8000E5E5F0E08081698140E00E94F20129C042
:100B90008B81853031F58C81282F30E03E832D8389
:100BA0008D819E81009731F02D813E81213031056C
:100BB00069F017C0E4E5F0E0808166E040E00E9463
:100BC000F201982F8A81892B8A830BC0E4E5F0E03B
:100BD000808166E041E00E94F201982F8A81892B92
:100BE0008A838A8128960FB6F894DEBF0FBECDBFE8
:100BF000CF91DF910895DF93CF9300D000D0CDB790
:100C0000DEB78A837C836B8319828A81863068F0A1
:100C10008A81873050F4EAE5F0E080812B813C81C5
:100C20006A81A9010E942004198289810F900F9086
:100C30000F900F90CF91DF9108951F920F920FB6F2
:100C40000F9211242F933F934F935F936F937F9352
:100C50008F939F93AF93BF93EF93FF93DF93CF93C4
:100C6000CDB7DEB78091600090916100009741F0B0
:100C7000E0916000F0916100099586E00E94000516
:100C8000CF91DF91FF91EF91BF91AF919F918F91A4
:100C90007F916F915F914F913F912F910F900FBE78
:100CA0000F901F9018951F920F920FB60F9211245C
:100CB0002F933F934F935F936F937F938F939F9364
:100CC000AF93BF93EF93FF93DF93CF93CDB7DEB78F
:100CD0008091620090916300009741F0E091620082
:100CE000F0916300099587E00E940005CF91DF91A4
:100CF000FF91EF91BF91AF919F918F917F916F91F4
:100D00005F914F913F912F910F900FBE0F901F90C9
:100D100018951F920F920FB60F9211242F933F93A5
:100D20004F935F936F937F938F939F93AF93BF93F3
:100D3000EF93FF93DF93CF93CDB7DEB7809164003D
:100D400090916500009741F0E0916400F09165009A
:100D5000099585E00E940005CF91DF91FF91EF9109
:100D6000BF91AF919F918F917F916F915F914F91C3
:100D70003F912F910F900FBE0F901F901895DF930A
:100D8000CF93CDB7DEB781E090E0CF91DF910895AA
:040D9000F894FFCF05
:00000001FF
